{
  "contractName": "SimpleWallet",
  "abi": [
    {
      "inputs": [],
      "name": "totalReceived",
      "outputs": [
        {
          "internalType": "uint256",
          "name": "",
          "type": "uint256"
        }
      ],
      "stateMutability": "view",
      "type": "function"
    },
    {
      "stateMutability": "payable",
      "type": "receive"
    },
    {
      "inputs": [],
      "name": "getBalance",
      "outputs": [
        {
          "internalType": "uint256",
          "name": "",
          "type": "uint256"
        }
      ],
      "stateMutability": "view",
      "type": "function"
    }
  ],
  "bytecode": "0x608060405234801561001057600080fd5b506101a4806100206000396000f3fe60806040526004361061002d5760003560e01c806312065fe014610051578063a3c2c4621461007c5761004c565b3661004c573460008082825461004391906100df565b92505081905550005b600080fd5b34801561005d57600080fd5b506100666100a7565b60405161007391906100c4565b60405180910390f35b34801561008857600080fd5b506100916100af565b60405161009e91906100c4565b60405180910390f35b600047905090565b60005481565b6100be81610135565b82525050565b60006020820190506100d960008301846100b5565b92915050565b60006100ea82610135565b91506100f583610135565b9250827fffffffffffffffffffffffffffffffffffffffffffffffffffffffffffffffff0382111561012a5761012961013f565b5b828201905092915050565b6000819050919050565b7f4e487b7100000000000000000000000000000000000000000000000000000000600052601160045260246000fdfea2646970667358221220ea7dbf19429edaaf9fbd27f50d3bd2f3f2c5de49bda00cbfef5a9a0c1c261ca564736f6c63430008000033",
  "immutableReferences": {},
  "source": "// contracts/SimpleWallet.sol\npragma solidity ^0.8.0;\n\ncontract SimpleWallet {\n    uint public totalReceived;\n\n    // Receive function to accept Ether\n    receive() external payable {\n        totalReceived += msg.value; // Track total received Ether\n    }\n\n    // Function to check contract balance\n    function getBalance() public view returns (uint) {\n        return address(this).balance;\n    }\n}\n",
  "sourcePath": "C:\\Users\\Lenovo\\OneDrive\\Desktop\\finalfinal\\TunisieMaisonFinal\\contracts\\SimpleWallet.sol",
  "compiler": {
    "name": "solc",
    "version": "0.8.0+commit.c7dfd78e.Emscripten.clang"
  },
  "schemaVersion": "3.4.16",
  "updatedAt": "2024-11-24T14:24:14.685Z",
  "devdoc": {
    "kind": "dev",
    "methods": {},
    "version": 1
  },
  "userdoc": {
    "kind": "user",
    "methods": {},
    "version": 1
  }
}